:020000040000FA
:020000000528D1
:08000800B5288316860187016B
:100010001F308700C0308600831206080B108B1734
:100020008B158601D0018701501C14280030A200D6
:100030004030A7008030B200C030B100870107080F
:10004000B00022080602031932202708060203190D
:1000500034203208060203195F2031080602031912
:100060008A201E2887011E2814300702031C4628F8
:10007000803087061430A0004820A00B3C28870160
:100080001430A0004820A00B42281E2887011E28FB
:1000900040300602031D1E2807081F393002031DC9
:1000A0001E280030A500F430A3000000000000006E
:1000B00000000000A50B5528A30B552808000F30A1
:1000C0000702031C7128803087061E30A0007320B1
:1000D000A00B672887011430A0007320A00B6D28A7
:1000E0001E2887011E2880300602031D1E280708CF
:1000F0001F393002031D1E280030A500F430A30074
:1001000000000000000000000000A50B8028A30BE9
:100110008028080005300702031C9C2880308706D1
:100120002830A0009E20A00B922887011430A00048
:100130009E20A00B98281E2887011E28C03006028A
:10014000031D1E2807081F393002031D1E2800301A
:10015000A500F430A3000000000000000000000033
:10016000A50BAB28A30BAB2808000130D00606086E
:040170000B10090067
:00000001FF
